{
  "contractName": "VotingSys",
  "abi": [
    {
      "inputs": [],
      "stateMutability": "nonpayable",
      "type": "constructor"
    },
    {
      "anonymous": false,
      "inputs": [
        {
          "indexed": false,
          "internalType": "address",
          "name": "voter",
          "type": "address"
        },
        {
          "indexed": false,
          "internalType": "uint256",
          "name": "candidateIndex",
          "type": "uint256"
        }
      ],
      "name": "Voted",
      "type": "event"
    },
    {
      "inputs": [
        {
          "internalType": "uint256",
          "name": "",
          "type": "uint256"
        }
      ],
      "name": "candidates",
      "outputs": [
        {
          "internalType": "string",
          "name": "name",
          "type": "string"
        },
        {
          "internalType": "string",
          "name": "party",
          "type": "string"
        },
        {
          "internalType": "uint256",
          "name": "votes",
          "type": "uint256"
        }
      ],
      "stateMutability": "view",
      "type": "function"
    },
    {
      "inputs": [],
      "name": "endDate",
      "outputs": [
        {
          "internalType": "uint256",
          "name": "",
          "type": "uint256"
        }
      ],
      "stateMutability": "view",
      "type": "function"
    },
    {
      "inputs": [
        {
          "internalType": "address",
          "name": "",
          "type": "address"
        }
      ],
      "name": "hasVoted",
      "outputs": [
        {
          "internalType": "bool",
          "name": "",
          "type": "bool"
        }
      ],
      "stateMutability": "view",
      "type": "function"
    },
    {
      "inputs": [
        {
          "internalType": "address",
          "name": "",
          "type": "address"
        }
      ],
      "name": "officials",
      "outputs": [
        {
          "internalType": "bool",
          "name": "",
          "type": "bool"
        }
      ],
      "stateMutability": "view",
      "type": "function"
    },
    {
      "inputs": [],
      "name": "owner",
      "outputs": [
        {
          "internalType": "address",
          "name": "",
          "type": "address"
        }
      ],
      "stateMutability": "view",
      "type": "function"
    },
    {
      "inputs": [],
      "name": "startDate",
      "outputs": [
        {
          "internalType": "uint256",
          "name": "",
          "type": "uint256"
        }
      ],
      "stateMutability": "view",
      "type": "function"
    },
    {
      "inputs": [
        {
          "internalType": "uint256",
          "name": "",
          "type": "uint256"
        }
      ],
      "name": "votersList",
      "outputs": [
        {
          "internalType": "address",
          "name": "",
          "type": "address"
        }
      ],
      "stateMutability": "view",
      "type": "function"
    },
    {
      "inputs": [
        {
          "internalType": "address",
          "name": "_addr",
          "type": "address"
        }
      ],
      "name": "addOfficial",
      "outputs": [],
      "stateMutability": "nonpayable",
      "type": "function"
    },
    {
      "inputs": [
        {
          "internalType": "string",
          "name": "_name",
          "type": "string"
        },
        {
          "internalType": "string",
          "name": "_party",
          "type": "string"
        }
      ],
      "name": "addCandidate",
      "outputs": [],
      "stateMutability": "nonpayable",
      "type": "function"
    },
    {
      "inputs": [
        {
          "internalType": "uint256",
          "name": "_candidateIndex",
          "type": "uint256"
        }
      ],
      "name": "removeCandidate",
      "outputs": [],
      "stateMutability": "nonpayable",
      "type": "function"
    },
    {
      "inputs": [
        {
          "internalType": "uint256",
          "name": "_start",
          "type": "uint256"
        },
        {
          "internalType": "uint256",
          "name": "_end",
          "type": "uint256"
        }
      ],
      "name": "setElectionDates",
      "outputs": [],
      "stateMutability": "nonpayable",
      "type": "function"
    },
    {
      "inputs": [],
      "name": "resetElection",
      "outputs": [],
      "stateMutability": "nonpayable",
      "type": "function"
    },
    {
      "inputs": [
        {
          "internalType": "uint256",
          "name": "_candidateIndex",
          "type": "uint256"
        }
      ],
      "name": "vote",
      "outputs": [],
      "stateMutability": "nonpayable",
      "type": "function"
    },
    {
      "inputs": [],
      "name": "getCandidates",
      "outputs": [
        {
          "internalType": "string[]",
          "name": "names",
          "type": "string[]"
        },
        {
          "internalType": "string[]",
          "name": "parties",
          "type": "string[]"
        },
        {
          "internalType": "uint256[]",
          "name": "votes",
          "type": "uint256[]"
        }
      ],
      "stateMutability": "view",
      "type": "function"
    },
    {
      "inputs": [],
      "name": "getElectionDates",
      "outputs": [
        {
          "internalType": "uint256",
          "name": "",
          "type": "uint256"
        },
        {
          "internalType": "uint256",
          "name": "",
          "type": "uint256"
        }
      ],
      "stateMutability": "view",
      "type": "function"
    },
    {
      "inputs": [],
      "name": "getTotalVotes",
      "outputs": [
        {
          "internalType": "uint256",
          "name": "",
          "type": "uint256"
        }
      ],
      "stateMutability": "view",
      "type": "function"
    },
    {
      "inputs": [],
      "name": "getWinner",
      "outputs": [
        {
          "internalType": "string",
          "name": "name",
          "type": "string"
        },
        {
          "internalType": "string",
          "name": "party",
          "type": "string"
        },
        {
          "internalType": "uint256",
          "name": "votes",
          "type": "uint256"
        }
      ],
      "stateMutability": "view",
      "type": "function"
    }
  ],
  "bytecode": "0x608060405234801561001057600080fd5b50600080546001600160a01b0319163390811782558152600160208190526040909120805460ff1916909117905561165f8061004d6000396000f3fe608060405234801561001057600080fd5b506004361061010b5760003560e01c80638da5cb5b116100a2578063c24a0f8b11610071578063c24a0f8b14610238578063d93321ef14610241578063e76373c814610264578063e8f305231461027f578063f2c405081461028757600080fd5b80638da5cb5b146102025780638e7ea5b2146102155780639a0e7d661461021d578063ac840db01461022557600080fd5b80630b97bc86116100de5780630b97bc861461018b57806326541b56146101a25780633477ee2e146101b557806372ce73ab146101d757600080fd5b80630121b93f1461011057806306a49fce1461012557806309e9d7e21461014557806309eef43e14610158575b600080fd5b61012361011e366004611030565b61029a565b005b61012d6104aa565b60405161013c939291906110e7565b60405180910390f35b610123610153366004611030565b610798565b61017b610166366004611150565b60056020526000908152604090205460ff1681565b604051901515815260200161013c565b61019460035481565b60405190815260200161013c565b6101236101b0366004611223565b6108ce565b6101c86101c3366004611030565b610a2f565b60405161013c93929190611287565b6101ea6101e5366004611030565b610b79565b6040516001600160a01b03909116815260200161013c565b6000546101ea906001600160a01b031681565b6101c8610ba3565b600654610194565b610123610233366004611150565b610dde565b61019460045481565b61017b61024f366004611150565b60016020526000908152604090205460ff1681565b6003546004546040805192835260208301919091520161013c565b610123610e34565b6101236102953660046112bd565b610ef4565b600354158015906102ac575060045415155b6102ed5760405162461bcd60e51b815260206004820152600d60248201526c11185d195cc81b9bdd081cd95d609a1b60448201526064015b60405180910390fd5b600354421015801561030157506004544211155b6103435760405162461bcd60e51b8152602060048201526013602482015272456c656374696f6e206e6f742061637469766560681b60448201526064016102e4565b3360009081526005602052604090205460ff16156103935760405162461bcd60e51b815260206004820152600d60248201526c105b1c9958591e481d9bdd1959609a1b60448201526064016102e4565b60025481106103d85760405162461bcd60e51b8152602060048201526011602482015270496e76616c69642063616e64696461746560781b60448201526064016102e4565b6001600282815481106103ed576103ed6112df565b9060005260206000209060030201600201600082825461040d919061130b565b9091555050336000818152600560209081526040808320805460ff191660019081179091556006805491820181559093527ff652222313e28459528d920b65115c16c04f3efc82aaedc97be59f3f377c0d3f90920180546001600160a01b03191684179055815192835282018390527f4d99b957a2bc29a30ebd96a7be8e68fe50a3c701db28a91436490b7d53870ca4910160405180910390a150565b606080606060028054905067ffffffffffffffff8111156104cd576104cd611180565b60405190808252806020026020018201604052801561050057816020015b60608152602001906001900390816104eb5790505b5060025490935067ffffffffffffffff81111561051f5761051f611180565b60405190808252806020026020018201604052801561055257816020015b606081526020019060019003908161053d5790505b5060025490925067ffffffffffffffff81111561057157610571611180565b60405190808252806020026020018201604052801561059a578160200160208202803683370190505b50905060005b60025481101561079257600281815481106105bd576105bd6112df565b906000526020600020906003020160000180546105d990611324565b80601f016020809104026020016040519081016040528092919081815260200182805461060590611324565b80156106525780601f1061062757610100808354040283529160200191610652565b820191906000526020600020905b81548152906001019060200180831161063557829003601f168201915b5050505050848281518110610669576106696112df565b602002602001018190525060028181548110610687576106876112df565b906000526020600020906003020160010180546106a390611324565b80601f01602080910402602001604051908101604052809291908181526020018280546106cf90611324565b801561071c5780601f106106f15761010080835404028352916020019161071c565b820191906000526020600020905b8154815290600101906020018083116106ff57829003601f168201915b5050505050838281518110610733576107336112df565b602002602001018190525060028181548110610751576107516112df565b906000526020600020906003020160020154828281518110610775576107756112df565b60209081029190910101528061078a8161135e565b9150506105a0565b50909192565b3360009081526001602052604090205460ff166107c75760405162461bcd60e51b81526004016102e490611377565b60025481106108085760405162461bcd60e51b815260206004820152600d60248201526c092dcecc2d8d2c840d2dcc8caf609b1b60448201526064016102e4565b60028054610818906001906113a0565b81548110610828576108286112df565b906000526020600020906003020160028281548110610849576108496112df565b60009182526020909120600390910201806108648382611402565b5060018181019061087790840182611402565b5060029182015490820155805480610891576108916114e3565b600082815260208120600019909201916003830201906108b18282610f6d565b6108bf600183016000610f6d565b60028201600090555050905550565b3360009081526001602052604090205460ff166108fd5760405162461bcd60e51b81526004016102e490611377565b60005b6002548110156109aa57828051906020012060028281548110610925576109256112df565b906000526020600020906003020160000160405161094391906114f9565b6040518091039020036109985760405162461bcd60e51b815260206004820152601860248201527f43616e64696461746520616c726561647920657869737473000000000000000060448201526064016102e4565b806109a28161135e565b915050610900565b5060408051606081018252838152602081018390526000918101829052600280546001810182559252805190916003027f405787fa12a823e0f2b7631cc41b3ba8828b3321ca811111fa75cd3aa3bb5ace01908190610a09908261156f565b5060208201516001820190610a1e908261156f565b506040820151816002015550505050565b60028181548110610a3f57600080fd5b9060005260206000209060030201600091509050806000018054610a6290611324565b80601f0160208091040260200160405190810160405280929190818152602001828054610a8e90611324565b8015610adb5780601f10610ab057610100808354040283529160200191610adb565b820191906000526020600020905b815481529060010190602001808311610abe57829003601f168201915b505050505090806001018054610af090611324565b80601f0160208091040260200160405190810160405280929190818152602001828054610b1c90611324565b8015610b695780601f10610b3e57610100808354040283529160200191610b69565b820191906000526020600020905b815481529060010190602001808311610b4c57829003601f168201915b5050505050908060020154905083565b60068181548110610b8957600080fd5b6000918252602090912001546001600160a01b0316905081565b60608060008060028054905011610bec5760405162461bcd60e51b815260206004820152600d60248201526c4e6f2063616e6469646174657360981b60448201526064016102e4565b60008060005b600254811015610c65578260028281548110610c1057610c106112df565b9060005260206000209060030201600201541115610c535760028181548110610c3b57610c3b6112df565b90600052602060002090600302016002015492508091505b80610c5d8161135e565b915050610bf2565b50600060028281548110610c7b57610c7b6112df565b9060005260206000209060030201604051806060016040529081600082018054610ca490611324565b80601f0160208091040260200160405190810160405280929190818152602001828054610cd090611324565b8015610d1d5780601f10610cf257610100808354040283529160200191610d1d565b820191906000526020600020905b815481529060010190602001808311610d0057829003601f168201915b50505050508152602001600182018054610d3690611324565b80601f0160208091040260200160405190810160405280929190818152602001828054610d6290611324565b8015610daf5780601f10610d8457610100808354040283529160200191610daf565b820191906000526020600020905b815481529060010190602001808311610d9257829003601f168201915b505050918352505060029190910154602091820152815190820151604090920151909891975095509350505050565b3360009081526001602052604090205460ff16610e0d5760405162461bcd60e51b81526004016102e490611377565b6001600160a01b03166000908152600160208190526040909120805460ff19169091179055565b3360009081526001602052604090205460ff16610e635760405162461bcd60e51b81526004016102e490611377565b610e6f60026000610faa565b60005b600654811015610edb5760006005600060068481548110610e9557610e956112df565b6000918252602080832091909101546001600160a01b031683528201929092526040019020805460ff191691151591909117905580610ed38161135e565b915050610e72565b50610ee860066000610fcb565b60006003819055600455565b3360009081526001602052604090205460ff16610f235760405162461bcd60e51b81526004016102e490611377565b808210610f625760405162461bcd60e51b815260206004820152600d60248201526c496e76616c696420646174657360981b60448201526064016102e4565b600391909155600455565b508054610f7990611324565b6000825580601f10610f89575050565b601f016020900490600052602060002090810190610fa79190610fe5565b50565b5080546000825560030290600052602060002090810190610fa79190610ffe565b5080546000825590600052602060002090810190610fa791905b5b80821115610ffa5760008155600101610fe6565b5090565b80821115610ffa5760006110128282610f6d565b611020600183016000610f6d565b5060006002820155600301610ffe565b60006020828403121561104257600080fd5b5035919050565b6000815180845260005b8181101561106f57602081850181015186830182015201611053565b506000602082860101526020601f19601f83011685010191505092915050565b600082825180855260208086019550808260051b84010181860160005b848110156110da57601f198684030189526110c8838351611049565b988401989250908301906001016110ac565b5090979650505050505050565b6060815260006110fa606083018661108f565b60208382038185015261110d828761108f565b8481036040860152855180825282870193509082019060005b8181101561114257845183529383019391830191600101611126565b509098975050505050505050565b60006020828403121561116257600080fd5b81356001600160a01b038116811461117957600080fd5b9392505050565b634e487b7160e01b600052604160045260246000fd5b600082601f8301126111a757600080fd5b813567ffffffffffffffff808211156111c2576111c2611180565b604051601f8301601f19908116603f011681019082821181831017156111ea576111ea611180565b8160405283815286602085880101111561120357600080fd5b836020870160208301376000602085830101528094505050505092915050565b6000806040838503121561123657600080fd5b823567ffffffffffffffff8082111561124e57600080fd5b61125a86838701611196565b9350602085013591508082111561127057600080fd5b5061127d85828601611196565b9150509250929050565b60608152600061129a6060830186611049565b82810360208401526112ac8186611049565b915050826040830152949350505050565b600080604083850312156112d057600080fd5b50508035926020909101359150565b634e487b7160e01b600052603260045260246000fd5b634e487b7160e01b600052601160045260246000fd5b8082018082111561131e5761131e6112f5565b92915050565b600181811c9082168061133857607f821691505b60208210810361135857634e487b7160e01b600052602260045260246000fd5b50919050565b600060018201611370576113706112f5565b5060010190565b6020808252600f908201526e139bdd08185b881bd9999a58da585b608a1b604082015260600190565b8181038181111561131e5761131e6112f5565b601f8211156113fd57600081815260208120601f850160051c810160208610156113da5750805b601f850160051c820191505b818110156113f9578281556001016113e6565b5050505b505050565b81810361140d575050565b6114178254611324565b67ffffffffffffffff81111561142f5761142f611180565b6114438161143d8454611324565b846113b3565b6000601f821160018114611477576000831561145f5750848201545b600019600385901b1c1916600184901b1784556114dc565b600085815260209020601f19841690600086815260209020845b838110156114b15782860154825560019586019590910190602001611491565b50858310156114cf5781850154600019600388901b60f8161c191681555b50505060018360011b0184555b5050505050565b634e487b7160e01b600052603160045260246000fd5b600080835461150781611324565b6001828116801561151f576001811461153457611563565b60ff1984168752821515830287019450611563565b8760005260208060002060005b8581101561155a5781548a820152908401908201611541565b50505082870194505b50929695505050505050565b815167ffffffffffffffff81111561158957611589611180565b6115978161143d8454611324565b602080601f8311600181146115cc57600084156115b45750858301515b600019600386901b1c1916600185901b1785556113f9565b600085815260208120601f198616915b828110156115fb578886015182559484019460019091019084016115dc565b50858210156116195787850151600019600388901b60f8161c191681555b5050505050600190811b0190555056fea2646970667358221220e2fd823b45cff7236a97462e82afe1b6604fa943f9e148260e5c028ce3f9414b64736f6c63430008130033",
  "immutableReferences": {},
  "source": "// SPDX-License-Identifier: MIT\npragma solidity ^0.8.0;\n\ncontract VotingSys {\n    struct Candidate {\n        string name;\n        string party;\n        uint votes;\n    }\n\n    address public owner;\n    mapping(address => bool) public officials;\n    Candidate[] public candidates;\n\n    uint public startDate;\n    uint public endDate;\n\n    mapping(address => bool) public hasVoted;\n    address[] public votersList;\n\n    event Voted(address voter, uint candidateIndex);\n\n    constructor() {\n        owner = msg.sender;\n        officials[msg.sender] = true;\n    }\n\n    modifier onlyOfficial() {\n        require(officials[msg.sender], \"Not an official\");\n        _;\n    }\n\n    modifier electionActive() {\n        require(startDate != 0 && endDate != 0, \"Dates not set\");\n        require(block.timestamp >= startDate && block.timestamp <= endDate, \"Election not active\");\n        _;\n    }\n\n    function addOfficial(address _addr) external onlyOfficial {\n        officials[_addr] = true;\n    }\n\n    function addCandidate(string memory _name, string memory _party) external onlyOfficial {\n        for(uint i = 0; i < candidates.length; i++){\n            require(\n                keccak256(bytes(candidates[i].name)) != keccak256(bytes(_name)), \n                \"Candidate already exists\"\n            );\n        }\n        candidates.push(Candidate(_name, _party, 0));\n    }\n\n    function removeCandidate(uint _candidateIndex) external onlyOfficial {\n        require(_candidateIndex < candidates.length, \"Invalid index\");\n        candidates[_candidateIndex] = candidates[candidates.length - 1];\n        candidates.pop();\n    }\n\n    function setElectionDates(uint _start, uint _end) external onlyOfficial {\n        require(_start < _end, \"Invalid dates\");\n        startDate = _start;\n        endDate = _end;\n    }\n\n    function resetElection() external onlyOfficial {\n        delete candidates;\n        for (uint i = 0; i < votersList.length; i++) {\n            hasVoted[votersList[i]] = false;\n        }\n        delete votersList;\n        startDate = 0;\n        endDate = 0;\n    }\n\n    function vote(uint _candidateIndex) external electionActive {\n        require(!hasVoted[msg.sender], \"Already voted\");\n        require(_candidateIndex < candidates.length, \"Invalid candidate\");\n\n        candidates[_candidateIndex].votes += 1;\n        hasVoted[msg.sender] = true;\n\n        votersList.push(msg.sender);\n\n        emit Voted(msg.sender, _candidateIndex);\n    }\n\n    function getCandidates()\n        external\n        view\n        returns (\n            string[] memory names,\n            string[] memory parties,\n            uint[] memory votes\n        )\n    {\n        names = new string[](candidates.length);\n        parties = new string[](candidates.length);\n        votes = new uint[](candidates.length);\n\n        for (uint i = 0; i < candidates.length; i++) {\n            names[i] = candidates[i].name;\n            parties[i] = candidates[i].party;\n            votes[i] = candidates[i].votes;\n        }\n    }\n\n    function getElectionDates() external view returns (uint, uint) {\n        return (startDate, endDate);\n    }\n\n    function getTotalVotes() external view returns (uint) {\n        return votersList.length;\n    }\n\n    function getWinner()\n        external\n        view\n        returns (string memory name, string memory party, uint votes)\n    {\n        require(candidates.length > 0, \"No candidates\");\n\n        uint maxVotes = 0;\n        uint winnerIndex = 0;\n\n        for (uint i = 0; i < candidates.length; i++) {\n            if (candidates[i].votes > maxVotes) {\n                maxVotes = candidates[i].votes;\n                winnerIndex = i;\n            }\n        }\n\n        Candidate memory w = candidates[winnerIndex];\n        return (w.name, w.party, w.votes);\n    }\n}",
  "sourcePath": "C:\\Users\\Raashi\\OneDrive\\Desktop\\BLOCKELECT-BlockchainVoting-System-main\\contracts\\VotingSys.sol",
  "compiler": {
    "name": "solc",
    "version": "0.8.19+commit.7dd6d404.Emscripten.clang"
  },
  "schemaVersion": "3.4.16",
  "updatedAt": "2026-04-20T05:30:34.958Z",
  "devdoc": {
    "kind": "dev",
    "methods": {},
    "version": 1
  },
  "userdoc": {
    "kind": "user",
    "methods": {},
    "version": 1
  }
}